{
  "contractName": "ERC20",
  "abi": [
    {
      "constant": true,
      "inputs": [],
      "name": "name",
      "outputs": [
        {
          "name": "",
          "type": "string"
        }
      ],
      "payable": false,
      "stateMutability": "view",
      "type": "function",
      "signature": "0x06fdde03"
    },
    {
      "constant": false,
      "inputs": [
        {
          "name": "_spender",
          "type": "address"
        },
        {
          "name": "_amount",
          "type": "uint256"
        }
      ],
      "name": "approve",
      "outputs": [
        {
          "name": "success",
          "type": "bool"
        }
      ],
      "payable": false,
      "stateMutability": "nonpayable",
      "type": "function",
      "signature": "0x095ea7b3"
    },
    {
      "constant": true,
      "inputs": [],
      "name": "totalSupply",
      "outputs": [
        {
          "name": "totalSupply",
          "type": "uint256"
        }
      ],
      "payable": false,
      "stateMutability": "view",
      "type": "function",
      "signature": "0x18160ddd"
    },
    {
      "constant": false,
      "inputs": [
        {
          "name": "_from",
          "type": "address"
        },
        {
          "name": "_to",
          "type": "address"
        },
        {
          "name": "_amount",
          "type": "uint256"
        }
      ],
      "name": "transferFrom",
      "outputs": [
        {
          "name": "success",
          "type": "bool"
        }
      ],
      "payable": false,
      "stateMutability": "nonpayable",
      "type": "function",
      "signature": "0x23b872dd"
    },
    {
      "constant": true,
      "inputs": [],
      "name": "decimals",
      "outputs": [
        {
          "name": "",
          "type": "uint8"
        }
      ],
      "payable": false,
      "stateMutability": "view",
      "type": "function",
      "signature": "0x313ce567"
    },
    {
      "constant": true,
      "inputs": [
        {
          "name": "_owner",
          "type": "address"
        }
      ],
      "name": "balanceOf",
      "outputs": [
        {
          "name": "balance",
          "type": "uint256"
        }
      ],
      "payable": false,
      "stateMutability": "view",
      "type": "function",
      "signature": "0x70a08231"
    },
    {
      "constant": false,
      "inputs": [],
      "name": "acceptOwnership",
      "outputs": [],
      "payable": false,
      "stateMutability": "nonpayable",
      "type": "function",
      "signature": "0x79ba5097"
    },
    {
      "constant": true,
      "inputs": [],
      "name": "owner",
      "outputs": [
        {
          "name": "",
          "type": "address"
        }
      ],
      "payable": false,
      "stateMutability": "view",
      "type": "function",
      "signature": "0x8da5cb5b"
    },
    {
      "constant": true,
      "inputs": [],
      "name": "symbol",
      "outputs": [
        {
          "name": "",
          "type": "string"
        }
      ],
      "payable": false,
      "stateMutability": "view",
      "type": "function",
      "signature": "0x95d89b41"
    },
    {
      "constant": false,
      "inputs": [
        {
          "name": "_to",
          "type": "address"
        },
        {
          "name": "_amount",
          "type": "uint256"
        }
      ],
      "name": "transfer",
      "outputs": [
        {
          "name": "success",
          "type": "bool"
        }
      ],
      "payable": false,
      "stateMutability": "nonpayable",
      "type": "function",
      "signature": "0xa9059cbb"
    },
    {
      "constant": true,
      "inputs": [],
      "name": "newOwner",
      "outputs": [
        {
          "name": "",
          "type": "address"
        }
      ],
      "payable": false,
      "stateMutability": "view",
      "type": "function",
      "signature": "0xd4ee1d90"
    },
    {
      "constant": true,
      "inputs": [
        {
          "name": "_owner",
          "type": "address"
        },
        {
          "name": "_spender",
          "type": "address"
        }
      ],
      "name": "allowance",
      "outputs": [
        {
          "name": "remaining",
          "type": "uint256"
        }
      ],
      "payable": false,
      "stateMutability": "view",
      "type": "function",
      "signature": "0xdd62ed3e"
    },
    {
      "constant": false,
      "inputs": [
        {
          "name": "_newOwner",
          "type": "address"
        }
      ],
      "name": "transferOwnership",
      "outputs": [],
      "payable": false,
      "stateMutability": "nonpayable",
      "type": "function",
      "signature": "0xf2fde38b"
    },
    {
      "inputs": [],
      "payable": false,
      "stateMutability": "nonpayable",
      "type": "constructor",
      "signature": "constructor"
    },
    {
      "constant": false,
      "inputs": [],
      "name": "faucet",
      "outputs": [],
      "payable": false,
      "stateMutability": "nonpayable",
      "type": "function",
      "signature": "0xde5f72fd"
    },
    {
      "constant": false,
      "inputs": [
        {
          "name": "tokenAddress",
          "type": "address"
        },
        {
          "name": "amount",
          "type": "uint256"
        }
      ],
      "name": "transferAnyERC20Token",
      "outputs": [
        {
          "name": "success",
          "type": "bool"
        }
      ],
      "payable": false,
      "stateMutability": "nonpayable",
      "type": "function",
      "signature": "0xdc39d06d"
    }
  ],
  "bytecode": "0x60806040526000805534801561001457600080fd5b5033600360006101000a81548173ffffffffffffffffffffffffffffffffffffffff021916908373ffffffffffffffffffffffffffffffffffffffff160217905550611234806100656000396000f3006080604052600436106100db576000357c0100000000000000000000000000000000000000000000000000000000900463ffffffff16806306fdde03146100e0578063095ea7b31461017057806318160ddd146101d557806323b872dd14610200578063313ce5671461028557806370a08231146102b657806379ba50971461030d5780638da5cb5b1461032457806395d89b411461037b578063a9059cbb1461040b578063d4ee1d9014610470578063dc39d06d146104c7578063dd62ed3e1461052c578063de5f72fd146105a3578063f2fde38b146105ba575b600080fd5b3480156100ec57600080fd5b506100f56105fd565b6040518080602001828103825283818151815260200191508051906020019080838360005b8381101561013557808201518184015260208101905061011a565b50505050905090810190601f1680156101625780820380516001836020036101000a031916815260200191505b509250505060405180910390f35b34801561017c57600080fd5b506101bb600480360381019080803573ffffffffffffffffffffffffffffffffffffffff16906020019092919080359060200190929190505050610636565b604051808215151515815260200191505060405180910390f35b3480156101e157600080fd5b506101ea610758565b6040518082815260200191505060405180910390f35b34801561020c57600080fd5b5061026b600480360381019080803573ffffffffffffffffffffffffffffffffffffffff169060200190929190803573ffffffffffffffffffffffffffffffffffffffff16906020019092919080359060200190929190505050610761565b604051808215151515815260200191505060405180910390f35b34801561029157600080fd5b5061029a610b18565b604051808260ff1660ff16815260200191505060405180910390f35b3480156102c257600080fd5b506102f7600480360381019080803573ffffffffffffffffffffffffffffffffffffffff169060200190929190505050610b1d565b6040518082815260200191505060405180910390f35b34801561031957600080fd5b50610322610b66565b005b34801561033057600080fd5b50610339610c22565b604051808273ffffffffffffffffffffffffffffffffffffffff1673ffffffffffffffffffffffffffffffffffffffff16815260200191505060405180910390f35b34801561038757600080fd5b50610390610c48565b6040518080602001828103825283818151815260200191508051906020019080838360005b838110156103d05780820151818401526020810190506103b5565b50505050905090810190601f1680156103fd5780820380516001836020036101000a031916815260200191505b509250505060405180910390f35b34801561041757600080fd5b50610456600480360381019080803573ffffffffffffffffffffffffffffffffffffffff16906020019092919080359060200190929190505050610c81565b604051808215151515815260200191505060405180910390f35b34801561047c57600080fd5b50610485610ea0565b604051808273ffffffffffffffffffffffffffffffffffffffff1673ffffffffffffffffffffffffffffffffffffffff16815260200191505060405180910390f35b3480156104d357600080fd5b50610512600480360381019080803573ffffffffffffffffffffffffffffffffffffffff16906020019092919080359060200190929190505050610ec6565b604051808215151515815260200191505060405180910390f35b34801561053857600080fd5b5061058d600480360381019080803573ffffffffffffffffffffffffffffffffffffffff169060200190929190803573ffffffffffffffffffffffffffffffffffffffff16906020019092919050505061102c565b6040518082815260200191505060405180910390f35b3480156105af57600080fd5b506105b86110b3565b005b3480156105c657600080fd5b506105fb600480360381019080803573ffffffffffffffffffffffffffffffffffffffff169060200190929190505050611131565b005b6040805190810160405280600881526020017f544553542042455400000000000000000000000000000000000000000000000081525081565b6000808214806106c257506000600260003373ffffffffffffffffffffffffffffffffffffffff1673ffffffffffffffffffffffffffffffffffffffff16815260200190815260200160002060008573ffffffffffffffffffffffffffffffffffffffff1673ffffffffffffffffffffffffffffffffffffffff16815260200190815260200160002054145b15156106cd57600080fd5b81600260003373ffffffffffffffffffffffffffffffffffffffff1673ffffffffffffffffffffffffffffffffffffffff16815260200190815260200160002060008573ffffffffffffffffffffffffffffffffffffffff1673ffffffffffffffffffffffffffffffffffffffff168152602001908152602001600020819055506001905092915050565b60008054905090565b600081600160008673ffffffffffffffffffffffffffffffffffffffff1673ffffffffffffffffffffffffffffffffffffffff168152602001908152602001600020541015801561082e575081600260008673ffffffffffffffffffffffffffffffffffffffff1673ffffffffffffffffffffffffffffffffffffffff16815260200190815260200160002060003373ffffffffffffffffffffffffffffffffffffffff1673ffffffffffffffffffffffffffffffffffffffff1681526020019081526020016000205410155b801561083a5750600082115b80156108c55750600160008473ffffffffffffffffffffffffffffffffffffffff1673ffffffffffffffffffffffffffffffffffffffff1681526020019081526020016000205482600160008673ffffffffffffffffffffffffffffffffffffffff1673ffffffffffffffffffffffffffffffffffffffff1681526020019081526020016000205401115b15610b0c5761091c82600160008773ffffffffffffffffffffffffffffffffffffffff1673ffffffffffffffffffffffffffffffffffffffff168152602001908152602001600020546111d190919063ffffffff16565b600160008673ffffffffffffffffffffffffffffffffffffffff1673ffffffffffffffffffffffffffffffffffffffff168152602001908152602001600020819055506109ee82600260008773ffffffffffffffffffffffffffffffffffffffff1673ffffffffffffffffffffffffffffffffffffffff16815260200190815260200160002060003373ffffffffffffffffffffffffffffffffffffffff1673ffffffffffffffffffffffffffffffffffffffff168152602001908152602001600020546111d190919063ffffffff16565b600260008673ffffffffffffffffffffffffffffffffffffffff1673ffffffffffffffffffffffffffffffffffffffff16815260200190815260200160002060003373ffffffffffffffffffffffffffffffffffffffff1673ffffffffffffffffffffffffffffffffffffffff16815260200190815260200160002081905550610ac082600160008673ffffffffffffffffffffffffffffffffffffffff1673ffffffffffffffffffffffffffffffffffffffff168152602001908152602001600020546111ea90919063ffffffff16565b600160008573ffffffffffffffffffffffffffffffffffffffff1673ffffffffffffffffffffffffffffffffffffffff1681526020019081526020016000208190555060019050610b11565b600090505b9392505050565b601281565b6000600160008373ffffffffffffffffffffffffffffffffffffffff1673ffffffffffffffffffffffffffffffffffffffff168152602001908152602001600020549050919050565b600460009054906101000a900473ffffffffffffffffffffffffffffffffffffffff1673ffffffffffffffffffffffffffffffffffffffff163373ffffffffffffffffffffffffffffffffffffffff161415610c2057600460009054906101000a900473ffffffffffffffffffffffffffffffffffffffff16600360006101000a81548173ffffffffffffffffffffffffffffffffffffffff021916908373ffffffffffffffffffffffffffffffffffffffff1602179055505b565b600360009054906101000a900473ffffffffffffffffffffffffffffffffffffffff1681565b6040805190810160405280600381526020017f424554000000000000000000000000000000000000000000000000000000000081525081565b600081600160003373ffffffffffffffffffffffffffffffffffffffff1673ffffffffffffffffffffffffffffffffffffffff1681526020019081526020016000205410158015610cd25750600082115b8015610d5d5750600160008473ffffffffffffffffffffffffffffffffffffffff1673ffffffffffffffffffffffffffffffffffffffff1681526020019081526020016000205482600160008673ffffffffffffffffffffffffffffffffffffffff1673ffffffffffffffffffffffffffffffffffffffff1681526020019081526020016000205401115b15610e9557610db482600160003373ffffffffffffffffffffffffffffffffffffffff1673ffffffffffffffffffffffffffffffffffffffff168152602001908152602001600020546111d190919063ffffffff16565b600160003373ffffffffffffffffffffffffffffffffffffffff1673ffffffffffffffffffffffffffffffffffffffff16815260200190815260200160002081905550610e4982600160008673ffffffffffffffffffffffffffffffffffffffff1673ffffffffffffffffffffffffffffffffffffffff168152602001908152602001600020546111ea90919063ffffffff16565b600160008573ffffffffffffffffffffffffffffffffffffffff1673ffffffffffffffffffffffffffffffffffffffff1681526020019081526020016000208190555060019050610e9a565b600090505b92915050565b600460009054906101000a900473ffffffffffffffffffffffffffffffffffffffff1681565b6000600360009054906101000a900473ffffffffffffffffffffffffffffffffffffffff1673ffffffffffffffffffffffffffffffffffffffff163373ffffffffffffffffffffffffffffffffffffffff16141515610f2457600080fd5b8273ffffffffffffffffffffffffffffffffffffffff1663a9059cbb600360009054906101000a900473ffffffffffffffffffffffffffffffffffffffff16846040518363ffffffff167c0100000000000000000000000000000000000000000000000000000000028152600401808373ffffffffffffffffffffffffffffffffffffffff1673ffffffffffffffffffffffffffffffffffffffff16815260200182815260200192505050602060405180830381600087803b158015610fe957600080fd5b505af1158015610ffd573d6000803e3d6000fd5b505050506040513d602081101561101357600080fd5b8101908080519060200190929190505050905092915050565b6000600260008473ffffffffffffffffffffffffffffffffffffffff1673ffffffffffffffffffffffffffffffffffffffff16815260200190815260200160002060008373ffffffffffffffffffffffffffffffffffffffff1673ffffffffffffffffffffffffffffffffffffffff16815260200190815260200160002054905092915050565b69021e19e0c9bab2400000600160003373ffffffffffffffffffffffffffffffffffffffff1673ffffffffffffffffffffffffffffffffffffffff1681526020019081526020016000206000828254019250508190555061112969021e19e0c9bab24000006000546111ea90919063ffffffff16565b600081905550565b600360009054906101000a900473ffffffffffffffffffffffffffffffffffffffff1673ffffffffffffffffffffffffffffffffffffffff163373ffffffffffffffffffffffffffffffffffffffff1614151561118d57600080fd5b80600460006101000a81548173ffffffffffffffffffffffffffffffffffffffff021916908373ffffffffffffffffffffffffffffffffffffffff16021790555050565b60008282111515156111df57fe5b818303905092915050565b60008082840190508381101515156111fe57fe5b80915050929150505600a165627a7a72305820d486bcde8393d019e609c16f68d542e1d41daf37d52e081d430dd4a74b394f340029",
  "source": "pragma solidity ^0.4.11;\n\n// ----------------------------------------------------------------------------\n// Dao.Casino Crowdsale Token Contract\n//\n// NOTE: This is the new Dao.Casino token contract as the old Dao.Casino\n//       crowdsale/token contract was attached to a buggy Parity multisig that\n//       was vulnerable to hackers\n//\n// Enjoy. (c) BokkyPooBah / Bok Consulting Pty Ltd for Dao.Casino 2017\n// The MIT Licence.\n// ----------------------------------------------------------------------------\n\n\n// ----------------------------------------------------------------------------\n// Safe maths, borrowed from OpenZeppelin\n// ----------------------------------------------------------------------------\nimport '../library/SafeMath.sol';\n\n\n// ----------------------------------------------------------------------------\n// Owned contract\n// ----------------------------------------------------------------------------\ncontract Owned {\n    address public owner;\n    address public newOwner;\n\n    function Owned() {\n        owner = msg.sender;\n    }\n\n    modifier onlyOwner {\n        require(msg.sender == owner);\n        _;\n    }\n\n    function transferOwnership(address _newOwner) onlyOwner {\n        newOwner = _newOwner;\n    }\n \n    function acceptOwnership() {\n        if (msg.sender == newOwner) {\n            owner = newOwner;\n        }\n    }\n}\n\n// ----------------------------------------------------------------------------\n// ERC20 Token, with the addition of symbol, name and decimals\n// https://github.com/ethereum/EIPs/issues/20\n// ----------------------------------------------------------------------------\ncontract ERC20Token {\n    using SafeMath for uint;\n\n    // ------------------------------------------------------------------------\n    // Total Supply\n    // ------------------------------------------------------------------------\n    uint256 _totalSupply = 0;\n\n    // ------------------------------------------------------------------------\n    // Balances for each account\n    // ------------------------------------------------------------------------\n    mapping(address => uint256) balances;\n\n    // ------------------------------------------------------------------------\n    // Owner of account approves the transfer of an amount to another account\n    // ------------------------------------------------------------------------\n    mapping(address => mapping (address => uint256)) allowed;\n\n    // ------------------------------------------------------------------------\n    // Get the total token supply\n    // ------------------------------------------------------------------------\n    function totalSupply() constant returns (uint256 totalSupply) {\n        totalSupply = _totalSupply;\n    }\n\n    // ------------------------------------------------------------------------\n    // Get the account balance of another account with address _owner\n    // ------------------------------------------------------------------------\n    function balanceOf(address _owner) public constant returns (uint256 balance) {\n        return balances[_owner];\n    }\n\n    // ------------------------------------------------------------------------\n    // Transfer the balance from owner's account to another account\n    // ------------------------------------------------------------------------\n    function transfer(address _to, uint256 _amount) public returns (bool success) {\n        if (balances[msg.sender] >= _amount && _amount > 0 && balances[_to] + _amount > balances[_to]) {\n            balances[msg.sender] = balances[msg.sender].sub(_amount);\n            balances[_to] = balances[_to].add(_amount);\n            return true;\n        } else {\n            return false;\n        }\n    }\n\n    // ------------------------------------------------------------------------\n    // Allow _spender to withdraw from your account, multiple times, up to the\n    // _value amount. If this function is called again it overwrites the\n    // current allowance with _value.\n    // ------------------------------------------------------------------------\n    function approve(\n        address _spender,\n        uint256 _amount\n    ) \n        public returns (bool success) \n    {\n        // Borrowed from the MiniMeToken contract\n        // To change the approve amount you first have to reduce the addresses`\n        //  allowance to zero by calling `approve(_spender,0)` if it is not\n        //  already 0 to mitigate the race condition described here:\n        //  https://github.com/ethereum/EIPs/issues/20#issuecomment-263524729\n        require((_amount == 0) || (allowed[msg.sender][_spender] == 0));\n\n        allowed[msg.sender][_spender] = _amount;\n        return true;\n    }\n\n    // ------------------------------------------------------------------------\n    // Spender of tokens transfer an amount of tokens from the token owner's\n    // balance to the spender's account. The owner of the tokens must already\n    // have approve(...)-d this transfer\n    // ------------------------------------------------------------------------\n    function transferFrom(\n        address _from,\n        address _to,\n        uint256 _amount\n    ) \n        public returns (bool success) \n    {\n        if (balances[_from] >= _amount && allowed[_from][msg.sender] >= _amount && _amount > 0 && balances[_to] + _amount > balances[_to]) {\n            balances[_from] = balances[_from].sub(_amount);\n            allowed[_from][msg.sender] = allowed[_from][msg.sender].sub(_amount);\n            balances[_to] = balances[_to].add(_amount);\n            return true;\n        } else {\n            return false;\n        }\n    }\n\n    // ------------------------------------------------------------------------\n    // Returns the amount of tokens approved by the owner that can be\n    // transferred to the spender's account\n    // ------------------------------------------------------------------------\n    function allowance(\n        address _owner, \n        address _spender\n    ) public constant returns (uint256 remaining)\n    {\n    return allowed[_owner][_spender];\n    }\n\n}\n\n\ncontract ERC20 is ERC20Token, Owned {\n\n    // ------------------------------------------------------------------------\n    // Token information\n    // ------------------------------------------------------------------------\n    string public constant name = \"TEST BET\";\n    string public constant symbol = \"BET\";\n    uint8 public constant decimals = 18;\n\n    function ERC20() public {\n    }\n\n    // ------------------------------------------------------------------------\n    // Only for testing in testnet\n    // ------------------------------------------------------------------------\n    function faucet() public {\n        balances[msg.sender] += 10000 ether;\n        _totalSupply = _totalSupply.add(10000 ether);\n    }\n\n    // ------------------------------------------------------------------------\n    // Owner can transfer out any accidentally sent ERC20 tokens\n    // ------------------------------------------------------------------------\n    function transferAnyERC20Token(address tokenAddress, uint amount)\n      public onlyOwner returns (bool success) \n    {\n        return ERC20Token(tokenAddress).transfer(owner, amount);\n    }\n}",
  "sourcePath": "/deploy_protocol/contracts/core/erc20.sol",
  "compiler": {
    "name": "solc",
    "version": "0.4.24+commit.e67f0147.Emscripten.clang"
  },
  "schemaVersion": "3.0.0-beta.0",
  "updatedAt": "2018-09-25T08:49:08.143Z"
}