{
  "contractName": "GameWL",
  "abi": [
    {
      "constant": true,
      "inputs": [],
      "name": "owner",
      "outputs": [
        {
          "name": "",
          "type": "address"
        }
      ],
      "payable": false,
      "stateMutability": "view",
      "type": "function",
      "signature": "0x8da5cb5b"
    },
    {
      "inputs": [],
      "payable": false,
      "stateMutability": "nonpayable",
      "type": "constructor",
      "signature": "constructor"
    },
    {
      "constant": false,
      "inputs": [
        {
          "name": "_newOwner",
          "type": "address"
        }
      ],
      "name": "ownerTransfership",
      "outputs": [],
      "payable": false,
      "stateMutability": "nonpayable",
      "type": "function",
      "signature": "0x6fdc202f"
    },
    {
      "constant": false,
      "inputs": [
        {
          "name": "_game",
          "type": "address"
        }
      ],
      "name": "addGame",
      "outputs": [
        {
          "name": "success",
          "type": "bool"
        }
      ],
      "payable": false,
      "stateMutability": "nonpayable",
      "type": "function",
      "signature": "0xd72d04db"
    },
    {
      "constant": false,
      "inputs": [
        {
          "name": "_game",
          "type": "address"
        }
      ],
      "name": "delGame",
      "outputs": [
        {
          "name": "success",
          "type": "bool"
        }
      ],
      "payable": false,
      "stateMutability": "nonpayable",
      "type": "function",
      "signature": "0xeda30c9e"
    },
    {
      "constant": true,
      "inputs": [
        {
          "name": "_game",
          "type": "address"
        }
      ],
      "name": "getStatus",
      "outputs": [
        {
          "name": "status",
          "type": "bool"
        }
      ],
      "payable": false,
      "stateMutability": "view",
      "type": "function",
      "signature": "0x30ccebb5"
    }
  ],
  "bytecode": "0x608060405234801561001057600080fd5b50336000806101000a81548173ffffffffffffffffffffffffffffffffffffffff021916908373ffffffffffffffffffffffffffffffffffffffff1602179055506104dd806100606000396000f30060806040526004361061006d576000357c0100000000000000000000000000000000000000000000000000000000900463ffffffff16806330ccebb5146100725780636fdc202f146100cd5780638da5cb5b14610110578063d72d04db14610167578063eda30c9e146101c2575b600080fd5b34801561007e57600080fd5b506100b3600480360381019080803573ffffffffffffffffffffffffffffffffffffffff16906020019092919050505061021d565b604051808215151515815260200191505060405180910390f35b3480156100d957600080fd5b5061010e600480360381019080803573ffffffffffffffffffffffffffffffffffffffff169060200190929190505050610273565b005b34801561011c57600080fd5b50610125610311565b604051808273ffffffffffffffffffffffffffffffffffffffff1673ffffffffffffffffffffffffffffffffffffffff16815260200191505060405180910390f35b34801561017357600080fd5b506101a8600480360381019080803573ffffffffffffffffffffffffffffffffffffffff169060200190929190505050610336565b604051808215151515815260200191505060405180910390f35b3480156101ce57600080fd5b50610203600480360381019080803573ffffffffffffffffffffffffffffffffffffffff1690602001909291905050506103f3565b604051808215151515815260200191505060405180910390f35b6000600160008373ffffffffffffffffffffffffffffffffffffffff1673ffffffffffffffffffffffffffffffffffffffff16815260200190815260200160002060009054906101000a900460ff169050919050565b6000809054906101000a900473ffffffffffffffffffffffffffffffffffffffff1673ffffffffffffffffffffffffffffffffffffffff163373ffffffffffffffffffffffffffffffffffffffff161415156102ce57600080fd5b806000806101000a81548173ffffffffffffffffffffffffffffffffffffffff021916908373ffffffffffffffffffffffffffffffffffffffff16021790555050565b6000809054906101000a900473ffffffffffffffffffffffffffffffffffffffff1681565b60008060009054906101000a900473ffffffffffffffffffffffffffffffffffffffff1673ffffffffffffffffffffffffffffffffffffffff163373ffffffffffffffffffffffffffffffffffffffff1614151561039357600080fd5b60018060008473ffffffffffffffffffffffffffffffffffffffff1673ffffffffffffffffffffffffffffffffffffffff16815260200190815260200160002060006101000a81548160ff02191690831515021790555060019050919050565b60008060009054906101000a900473ffffffffffffffffffffffffffffffffffffffff1673ffffffffffffffffffffffffffffffffffffffff163373ffffffffffffffffffffffffffffffffffffffff1614151561045057600080fd5b6000600160008473ffffffffffffffffffffffffffffffffffffffff1673ffffffffffffffffffffffffffffffffffffffff16815260200190815260200160002060006101000a81548160ff021916908315150217905550600190509190505600a165627a7a7230582082fa3b0fa1b251e5fbf5c44b65f4fa1e3bdecc721e7250bac46d7d2b44a4203c0029",
  "source": "pragma solidity ^0.4.23;\n\n/**\n@title Whitelist of games\n@notice contract for managing the list of games\n*/\ncontract GameWL {\n    \n    /**\n    @notice constructor of contract\n    */\n    constructor () public {\n        owner = msg.sender;\n    }\n\n    modifier onlyOwner() {\n        require(msg.sender == owner);\n        _;\n    }\n\n    /**\n    @notice change of ownership\n    @param _newOwner address of new contract owner\n    */\n    function ownerTransfership(address _newOwner) public onlyOwner {\n        owner = _newOwner;\n    }\n\n    address public owner;\n\n    mapping (address => bool) whitelist;\n\n    /**\n    @notice Set the launch permission\n    @param _game address of the game\n    @return success\n    */\n    function addGame(address _game) public onlyOwner returns(bool success) {\n        whitelist[_game] = true;\n        success = true;\n    }\n\n    /**\n    @notice Delete the launch permission\n    @param _game address of the game\n    @return success\n    */\n    function delGame(address _game) public onlyOwner returns(bool success) {\n        whitelist[_game] = false;\n        success = true;\n    }\n\n    /**\n    @notice Get the launch permission\n    @param _game address of the game\n    @return game status\n    */\n    function getStatus(address _game) external view returns(bool status) {\n        status = whitelist[_game];\n    }\n\n}",
  "sourcePath": "/deploy_protocol/contracts/whitelists/GameWL.sol",
  "compiler": {
    "name": "solc",
    "version": "0.4.24+commit.e67f0147.Emscripten.clang"
  },
  "schemaVersion": "3.0.0-beta.0",
  "updatedAt": "2018-09-25T08:49:08.123Z"
}