{
  "contractName": "PlayerWL",
  "abi": [
    {
      "constant": true,
      "inputs": [],
      "name": "owner",
      "outputs": [
        {
          "name": "",
          "type": "address"
        }
      ],
      "payable": false,
      "stateMutability": "view",
      "type": "function",
      "signature": "0x8da5cb5b"
    },
    {
      "constant": true,
      "inputs": [],
      "name": "minimal",
      "outputs": [
        {
          "name": "",
          "type": "uint256"
        }
      ],
      "payable": false,
      "stateMutability": "view",
      "type": "function",
      "signature": "0x94a53d41"
    },
    {
      "inputs": [
        {
          "name": "_min",
          "type": "uint256"
        }
      ],
      "payable": false,
      "stateMutability": "nonpayable",
      "type": "constructor",
      "signature": "constructor"
    },
    {
      "constant": false,
      "inputs": [
        {
          "name": "_newOwner",
          "type": "address"
        }
      ],
      "name": "ownerTransfership",
      "outputs": [],
      "payable": false,
      "stateMutability": "nonpayable",
      "type": "function",
      "signature": "0x6fdc202f"
    },
    {
      "constant": false,
      "inputs": [
        {
          "name": "_player",
          "type": "address"
        },
        {
          "name": "_amount",
          "type": "uint256"
        }
      ],
      "name": "setAmountForPlayer",
      "outputs": [
        {
          "name": "",
          "type": "bool"
        }
      ],
      "payable": false,
      "stateMutability": "nonpayable",
      "type": "function",
      "signature": "0x08af84f0"
    },
    {
      "constant": true,
      "inputs": [
        {
          "name": "_player",
          "type": "address"
        }
      ],
      "name": "getMaxAmount",
      "outputs": [
        {
          "name": "_amount",
          "type": "uint256"
        }
      ],
      "payable": false,
      "stateMutability": "view",
      "type": "function",
      "signature": "0x15525991"
    }
  ],
  "bytecode": "0x608060405234801561001057600080fd5b5060405160208061047a8339810180604052810190808051906020019092919050505033600160006101000a81548173ffffffffffffffffffffffffffffffffffffffff021916908373ffffffffffffffffffffffffffffffffffffffff16021790555080600081905550506103ef8061008b6000396000f30060806040526004361061006d576000357c0100000000000000000000000000000000000000000000000000000000900463ffffffff16806308af84f01461007257806315525991146100d75780636fdc202f1461012e5780638da5cb5b1461017157806394a53d41146101c8575b600080fd5b34801561007e57600080fd5b506100bd600480360381019080803573ffffffffffffffffffffffffffffffffffffffff169060200190929190803590602001909291905050506101f3565b604051808215151515815260200191505060405180910390f35b3480156100e357600080fd5b50610118600480360381019080803573ffffffffffffffffffffffffffffffffffffffff16906020019092919050505061029f565b6040518082815260200191505060405180910390f35b34801561013a57600080fd5b5061016f600480360381019080803573ffffffffffffffffffffffffffffffffffffffff1690602001909291905050506102f7565b005b34801561017d57600080fd5b50610186610397565b604051808273ffffffffffffffffffffffffffffffffffffffff1673ffffffffffffffffffffffffffffffffffffffff16815260200191505060405180910390f35b3480156101d457600080fd5b506101dd6103bd565b6040518082815260200191505060405180910390f35b6000600160009054906101000a900473ffffffffffffffffffffffffffffffffffffffff1673ffffffffffffffffffffffffffffffffffffffff163373ffffffffffffffffffffffffffffffffffffffff1614151561025157600080fd5b81600260008573ffffffffffffffffffffffffffffffffffffffff1673ffffffffffffffffffffffffffffffffffffffff168152602001908152602001600020819055506001905092915050565b6000600260008373ffffffffffffffffffffffffffffffffffffffff1673ffffffffffffffffffffffffffffffffffffffff16815260200190815260200160002054905060008114156102f25760005490505b919050565b600160009054906101000a900473ffffffffffffffffffffffffffffffffffffffff1673ffffffffffffffffffffffffffffffffffffffff163373ffffffffffffffffffffffffffffffffffffffff1614151561035357600080fd5b80600160006101000a81548173ffffffffffffffffffffffffffffffffffffffff021916908373ffffffffffffffffffffffffffffffffffffffff16021790555050565b600160009054906101000a900473ffffffffffffffffffffffffffffffffffffffff1681565b600054815600a165627a7a72305820b6c89a11a0e2933645410805443ba8524fd61e07297e9e0e3ec925542596188f0029",
  "source": "pragma solidity ^0.4.23;\n\n/**\n@title Whitelist of players\n@notice contract for managing the list of players\n*/\ncontract PlayerWL {\n    \n    /**\n    @notice constructor of contract\n    @param _min the minimum allowed amount \n    */\n    constructor (uint _min) public {\n        owner = msg.sender;\n        minimal = _min;\n    }\n\n    modifier onlyOwner() {\n        require(msg.sender == owner);\n        _;\n    }\n\n    /**\n    @notice change of ownership\n    @param _newOwner address of new contract owner\n    */\n    function ownerTransfership(address _newOwner) public onlyOwner {\n        owner = _newOwner;\n    }\n\n    uint public minimal;\n    address public owner;\n\n    mapping (address => uint) whitelist;\n\n    /**\n    @notice Set the allowed amount\n    @param _player address of the player\n    @param _amount allowable amount\n    @return success\n    */\n    function setAmountForPlayer(address _player, uint _amount) public onlyOwner returns(bool) {\n        whitelist[_player] = _amount;\n        return true;\n    }\n\n    /**\n    @notice Get the allowed amount\n    @param _player address of the player\n    @return allowable amount\n    */\n    function getMaxAmount(address _player) external view returns(uint _amount) {\n        _amount = whitelist[_player];\n        if (_amount == uint(0)) {\n            _amount = minimal;\n        }\n    }\n\n}",
  "sourcePath": "/deploy_protocol/contracts/whitelists/PlayerWL.sol",
  "compiler": {
    "name": "solc",
    "version": "0.4.24+commit.e67f0147.Emscripten.clang"
  },
  "schemaVersion": "3.0.0-beta.0",
  "updatedAt": "2018-09-25T08:49:08.125Z"
}