{
  "contractName": "RSA",
  "abi": [
    {
      "constant": true,
      "inputs": [
        {
          "name": "rawmsg",
          "type": "bytes32"
        },
        {
          "name": "N",
          "type": "bytes"
        },
        {
          "name": "E",
          "type": "bytes"
        },
        {
          "name": "S",
          "type": "bytes"
        }
      ],
      "name": "verify",
      "outputs": [
        {
          "name": "",
          "type": "bool"
        }
      ],
      "payable": false,
      "stateMutability": "view",
      "type": "function",
      "signature": "0xc658da51"
    }
  ],
  "bytecode": "0x608060405234801561001057600080fd5b506104ad806100206000396000f300608060405260043610610041576000357c0100000000000000000000000000000000000000000000000000000000900463ffffffff168063c658da5114610046575b600080fd5b34801561005257600080fd5b506101476004803603810190808035600019169060200190929190803590602001908201803590602001908080601f0160208091040260200160405190810160405280939291908181526020018383808284378201915050505050509192919290803590602001908201803590602001908080601f0160208091040260200160405190810160405280939291908181526020018383808284378201915050505050509192919290803590602001908201803590602001908080601f0160208091040260200160405190810160405280939291908181526020018383808284378201915050505050509192919290505050610161565b604051808215151515815260200191505060405180910390f35b60006060600080606087516040519080825280601f01601f19166020018201604052801561019e5781602001602082028038833980820191505090505b509350600192505b602060ff1683111515610238578883602060ff16036020811015156101c757fe5b1a7f01000000000000000000000000000000000000000000000000000000000000000284848651038151811015156101fb57fe5b9060200101907effffffffffffffffffffffffffffffffffffffffffffffffffffffffffffff1916908160001a90535082806001019350506101a6565b61024386888a610338565b80925081935050506001151582151514801561032a5750836040518082805190602001908083835b602083101515610290578051825260208201915060208101905060208303925061026b565b6001836020036101000a038019825116818451168082178552505050505050905001915050604051809103902060001916816040518082805190602001908083835b6020831015156102f757805182526020820191506020810190506020830392506102d2565b6001836020036101000a038019825116818451168082178552505050505050905001915050604051809103902060001916145b945050505050949350505050565b60006060600080600080606089519450885193508751925082848660600101019150816040519080825280601f01601f19166020018201604052801561038d5781602001602082028038833980820191505090505b509050826040519080825280601f01601f1916602001820160405280156103c35781602001602082028038833980820191505090505b5095508460208201528360408201528260608201526103e78a600083606089610428565b6103f8896000838860600188610428565b61040b8860008387896060010187610428565b8260208701836020840160055afa96505050505050935093915050565b836020018501945081602001830192505b60208110151561045e5784518352602083019250602085019450602081039050610439565b6001816020036101000a03801986511681855116808217865250505050505050505600a165627a7a723058201d206ab3994f3968f8c64ce1e043306d3a0c802111238cc0a2627f3c2fe71b8a0029",
  "source": "pragma solidity ^0.4.17;\n\n/**\n@title contract for verify RSA sign\n@dev contract contains the necessary changes for sign hash\n@author Nick Johnson\n*/\ncontract RSA {\n\n    /**\n    @notice Verify of RSA sign\n    @param rawmsg raw message\n    @param N N-component of RSA public keys\n    @param E E-component of RSA public keys\n    @param S Signature of the raw message\n    */\n    function verify(bytes32 rawmsg, bytes N, bytes E, bytes S) public view returns (bool) {\n        bytes memory b = new bytes(N.length);\n            for (uint i = 1; i <= rawmsg.length; i++){\n                b[b.length-i] = rawmsg[rawmsg.length-i];\n            }\n        bool retS;\n        bytes memory valS;\n        (retS, valS) = modexp(S, E, N);\n        return (retS == true && keccak256(valS) == keccak256(b));\n    }\n\n    function memcopy(bytes src, uint srcoffset, bytes dst, uint dstoffset, uint len) pure internal {\n        assembly {\n            //begining of data in src and dst\n            src := add(src, add(32, srcoffset))\n            dst := add(dst, add(32, dstoffset))\n\n            // copy 32 bytes at once\n            for\n                {} //counter not needed\n                iszero(lt(len, 32)) //untill (len>32)\n                {\n                    dst := add(dst, 32) //destination pointer shift to 32 bytes \n                    src := add(src, 32) //source pointer shift to 32 bytes\n                    len := sub(len, 32) //length of the remainder decrease to 32 bytes\n                }\n                { mstore(dst, mload(src)) }\n            // copy the remainder (0 < len < 32)\n            let mask := sub(exp(256, sub(32, len)), 1) //256^(32-len) - 1\n            let srcpart := and(mload(src), not(mask)) //select first len bytes\n            let dstpart := and(mload(dst), mask)  //set to zero first len bytes\n            mstore(dst, or(srcpart, dstpart))   //first len bits of source copy to dst\n        }\n    }\n\n    function modexp(bytes base, bytes exponent, bytes modulus) internal view returns (bool success, bytes output) {\n        uint base_length = base.length;\n        uint exponent_length = exponent.length;\n        uint modulus_length = modulus.length;\n\n        //Allocate memory for input\n        uint size = (32 * 3) + base_length + exponent_length + modulus_length;\n        bytes memory input = new bytes(size);\n\n        ////Allocate memory for output\n        output = new bytes(modulus_length);\n\n        //Push lengths on the stack\n        assembly {\n            //mstore(addr, src) - push src to addr on the stack\n            mstore(add(input, 32), base_length) //push base_length on the bytes[0]\n            mstore(add(input, 64), exponent_length)\n            mstore(add(input, 96), modulus_length) \n        }\n        //push base on the stack\n        memcopy(base, 0, input, 96, base_length);\n        //push exponent on the stack\n        memcopy(exponent, 0, input, 96 + base_length, exponent_length);\n        //push modulus on the stack\n        memcopy(modulus, 0, input, 96 + base_length + exponent_length, modulus_length);\n\n        //call bigModExp precompiled contract\n        assembly {\n            success := staticcall(gas(), 5, add(input, 32), size, add(output, 32), modulus_length)\n        }\n    }\n\n}",
  "sourcePath": "/deploy_protocol/contracts/core/RSA.sol",
  "compiler": {
    "name": "solc",
    "version": "0.4.24+commit.e67f0147.Emscripten.clang"
  },
  "schemaVersion": "3.0.0-beta.0",
  "updatedAt": "2018-09-25T08:49:08.135Z"
}